:100000000C9462030C949A030C949A030C949A0334
:100010000C949A030C949A030C949A030C949A03EC
:100020000C949A030C949A030C94032A0C94C429FC
:100030000C94172B0C949A030C949A030C949A0327
:100040000C949A030C949A030C949A030C949A03BC
:100050000C949A030C94F32A0C949A030C949A032C
:100060000C949A030C949A030C949A030C949A039C
:100070000C949A030C949A030C949A030C949A038C
:100080000C949A030C949A030C949A030C949A037C
:100090000C949A030C949A030C949A030C949A036C
:1000A0000C949A030C949A030C949A030000000099
:1000B0000000000000000000000000000000000040
:1000C0000000000000000000000000000000000030
:1000D0007E0F00D4FFFFFFC7000000780000000083
:1000E000000000002A2B2800000000000000000093
:1000F0000000000000000029000000002C1E342039
:10010000212224342627252E362D3738271E1F205E
:100110002122232425263333362E37381F040506A3
:100120000708090A0B0C0D0E0F10111213141516E7
:100130001718191A1B1C1D2F3130232D35040506E5
:100140000708090A0B0C0D0E0F10111213141516C7
:100150001718191A1B1C1D2F3130354C1E0F0500A6
:10016000047F3F1F643214643214783C1E1E140A4C
:100170000500010101010101010101020202020267
:10018000020202020303030303030303040404043F
:100190000404040505050505060606060607070707
:1001A000070708080808090909090A0A0A0B0B0BBE
:1001B0000C0C0C0D0D0D0E0E0E0F0F0F101011115B
:1001C00011121213131414151516161717181819DF
:1001D000191A1A1B1B1C1D1D1E1E1F202021222246
:1001E000232424252626272829292A2B2C2D2D2E89
:1001F0002F30313232333435363738393A3B3C3DA3
:100200003E3F404142434445464748494A4C4D4E93
:100210004F50515354555658595A5B5D5E5F616259
:1002200064656668696B6C6D6F7072737577787AE8
:100230007B7D7E8082838587888A8C8E8F91939543
:1002400096989A9C9EA0A2A3A5A7A9ABADAFB1B367
:10025000B5B7BABCBEC0C2C4C6C9CBCDCFD1D4D647
:10026000D8DBDDDFE2E4E7E9EBEEF0F3F5F8FAFDE9
:10027000FFFFAA7F55402223252628292A2C2D2F2F
:100280003032333536383A3B3D3E404243454749AC
:100290004A4C4E5051535557595A5C5E60626466E1
:1002A00068696B6D6F71737577797B7D7F818385ED
:1002B00087898A8C8E90929496989A9C9E9FA1A3EF
:1002C000A5A7A8AAACAEAFB1B3B4B6B8B9BBBCBE13
:1002D000BFC1C2C3C5C6C7C9CACBCCCDCED0D1D28F
:1002E000D2D3D4D5D6D7D7D8D9D9DADADBDBDBDC91
:1002F000DCDCDCDCDDDDDDDDDCDCDCDCDCDBDBDB3D
:10030000DADAD9D9D8D7D7D6D5D4D3D2D2D1D0CE9C
:10031000CDCCCBCAC9C7C6C5C3C2C1BFBEBCBBB9A1
:10032000B8B6B4B3B1AFAEACAAA8A7A5A3A19F9E1F
:100330009C9A98969492908E8C8A89878583817FE7
:100340007D7B79777573716F6D6B696866646260C8
:100350005E5C5A5957555351504E4C4A4947454394
:1003600042403E3D3B3A3836353332302F2D2C2A31
:1003700029282625232229001E001F0020002100F5
:100380002200230024002500260027002D002E0037
:1003900031002B0014001A000800150017001C0083
:1003A00018000C00120013002F0030002A00E0009B
:1003B00004001600070009000A000B000D000E00E3
:1003C0000F003300340035002800E10000001D005C
:1003D0001B00060019000500110010003600370050
:1003E0003800E50021520000E200E30000000000B8
:1003F0002C0000002C0000002C000000E700E600AC
:10040000000001003A003B003C003D003E003F0080
:1004100040004100420043004400450049003900CB
:1004200001000100010001000100010001000100C4
:10043000010001005200010001000100AA00A90012
:10044000A80001000100550054004A004B00500074
:100450004F004C00010001000000010001000100FC
:1004600001000100570056004D004E0051000100F0
:100470000100000001000100000000000100000078
:100480000100000001000000010022520000007C79
:1004900013700100010001000100010001000100D2
:1004A0000100010001000100010001000100010044
:1004B0000100010001000100010001000100010034
:1004C0000100010001000100010001000100010024
:1004D0000100010001000100010001000100010014
:1004E0000100010000000100010001000100010005
:1004F00001000100010001000100010001000000F5
:1005000001000100000000000100000001000000E7
:10051000010000000100010000000660FF0961A168
:10052000010962150026FF00952075088102096304
:10053000150026FF00952075089102C005010906E7
:10054000A1018501050719E029E715002501950896
:10055000750181029501750881010507190029FFC0
:10056000150026FF00950675088100050819012968
:1005700005150025019505750191029501750391F9
:1005800001C005010902A10185020901A1000509B7
:100590001901290815002501950875018102050139
:1005A000093009311581257F9502750881060938C2
:1005B0001581257F950175088106050C0A380215FD
:1005C00081257F950175088106C0C005010980A1BC
:1005D00001850319012AB700150126B70095017599
:1005E000108100C0050C0901A101850419012AA090
:1005F00002150126A002950175108100C0050109B0
:1006000006A1018506050719E029E71500250195D2
:1006100008750181020507190029EF1500250195CC
:10062000F0750181020508190129059505750191EB
:1006300002950175039101C009024200020100A068
:10064000FA09040000010301010009211101000160
:1006500022FC0007058303200001090401000203B6
:100660000000000921110100012222000705810379
:100670002000010705020320000112010002000012
:10068000000803A126000100010200010A034C003A
:1006900069006C00790000002603610069003000E9
:1006A00033002000440065007300690067006E009D
:1006B0002000530074007500640069006F000000A2
:1006C0000403090411241FBECFEFDAE0DEBFCDBF63
:1006D00004B603FE18C08091EB029091EC02A09149
:1006E000ED02B091EE028730904BA740B04B59F429
:1006F0001092EB021092EC021092ED021092EE02B8
:10070000E0E0F8E3099522E0A2E9B1E001C01D9222
:10071000AB3EB207E1F711E0A0E0B1E0EAE5FDE6AB
:1007200002C005900D92A239B107D9F70E943E2B65
:100730000C9447360C940000E091E3024091AA0229
:10074000E41306C018C0F9013196E7704E1799F00E
:100750002E2F30E097E0E99FF0011124E555FD4F81
:1007600091816913F0CF90818913EDCF9581992301
:1007700051F3892F089590E0892F08951092E90090
:100780008091EB008E7F8093EB008091ED008D7F58
:100790008093ED008091EB0081608093EB001092DC
:1007A000EC0082E08093ED001092F0008091EE006A
:1007B00087FFDCC081E08093E9003091EC009091EC
:1007C000ED002091F00091FF19C08091EB008E7F29
:1007D0008093EB008091ED008D7F8093ED00809100
:1007E000EB0081608093EB003093EC009093ED0080
:1007F0002093F0008091EE0087FFB8C082E08093E4
:10080000E9003091EC008091ED002091F00081FF33
:1008100019C09091EB009E7F9093EB009091ED00BA
:100820009D7F9093ED009091EB0091609093EB0091
:100830003093EC008093ED002093F0008091EE0067
:1008400087FF94C083E08093E9003091EC008091B1
:10085000ED002091F00081FF19C09091EB009E7F88
:100860009093EB009091ED009D7F9093ED0090911F
:10087000EB0091609093EB003093EC008093ED00DF
:100880002093F0008091EE0087FF70C084E0809399
:10089000E9003091EC008091ED002091F00081FFA3
:1008A00019C09091EB009E7F9093EB009091ED002A
:1008B0009D7F9093ED009091EB0091609093EB0001
:1008C0003093EC008093ED002093F0008091EE00D7
:1008D00087FF4CC085E08093E9003091EC00809167
:1008E000ED002091F00081FF19C09091EB009E7FF8
:1008F0009093EB009091ED009D7F9093ED0090918F
:10090000EB0091609093EB003093EC008093ED004E
:100910002093F0008091EE0087FF28C086E080934E
:10092000E9003091EC009091ED002091F00091FFF2
:1009300019C08091EB008E7F8093EB008091ED00D9
:100940008D7F8093ED008091EB0081608093EB00C0
:100950003093EC009093ED002093F0008091EE0036
:1009600087FF04C01092E90081E0089580E00895B7
:10097000E8EDF0E080818E7F80831092E20010929B
:10098000DA001092E100A0EEB0E08C9181608C93CF
:1009900080818F77808319BCA7EDB0E08C918E7F2A
:1009A0008C9380818F7E8083109294020895B0E0B2
:1009B000A0E0EDEDF4E00C94B334C8EDD0E0888114
:1009C0008F7E8883E7EDF0E080818160808384E022
:1009D00082BF81E08093940288818E7F888302EEBB
:1009E00010E0F80110821092DA0081EEC82ED12CAE
:1009F000F601108288818F77888388818068888358
:100A000088818F7D888319BC1092A0021092A10268
:100A100010929F0210929E0290EEE92EF12CF701A7
:100A200080818B7F80838881816088830E94BE0360
:100A3000F60180818E7F8083F801808181608083D0
:100A4000808188608083F70180818E7F80838881A8
:100A500080618883CDB7DEB7E8E00C94CF34409155
:100A6000E4005091E50025E69091EC00892F81701B
:100A700090FD1AC09091E80092FD1DC08091A002E7
:100A80008823D1F08530D1F08091EB0085FD12C034
:100A90008091E4009091E5004817590729F321500F
:100AA000AC0111F784E008958091E80080FFE6CF63
:100AB00080E0089581E0089582E0089583E008953C
:100AC0008091A20287FF05C012C08091A0028823F6
:100AD00049F08091E80080FFF8CF8091E8008E77A0
:100AE0008093E80008958091A0028823D9F3809133
:100AF000E80082FFF8CF8091E8008B778093E800D0
:100B00000895FC012091A8023091A9022617370709
:100B100020F09B01672B09F452C040E021153105FC
:100B2000C9F5442309F445C08091A002882311F13E
:100B3000853009F44CC08091E80083FD4AC0809163
:100B4000E80082FD36C08091E80080FF0FC0CEC073
:100B50009530E9F19091E80093FD3BC09091E80059
:100B600092FD27C09091E80090FDC0C09091A00236
:100B70009111EECF82E00895953049F19091E8000F
:100B800093FD27C09091E80092FD13C09091E8007A
:100B900090FD21C09091A0029111EECFEBCF8091FA
:100BA000A002882339F3853091F08091E80083FD1D
:100BB00010C08091E80082FFF2CF80E0089580911C
:100BC000E8008E778093E80030E020E0A6CF83E055
:100BD000089581E008958091F3004091F200582F2C
:100BE000CA014830510508F070C0DF018D91809333
:100BF000F100B90161507109CA01019661157105D1
:100C000009F46DC0089709F46EC081818093F100EA
:100C1000DF01129661507109CA01029661157105D2
:100C200009F45DC0089709F45EC082818093F100E9
:100C3000119661507109CA0103966115710509F495
:100C40004EC0089709F44FC083818093F10011963C
:100C500061507109CA0104966115710509F43FC01C
:100C6000089709F440C084818093F1001196615087
:100C70007109CA0105966115710589F1089799F105
:100C800085818093F100119661507109CA01069621
:100C90006115710521F1089731F186818093F1008A
:100CA000119661507109CA01079661157105B9F075
:100CB0000797C9F487818093F1003896285031094D
:100CC00088E090E069F088E090E041E0089709F062
:100CD00040E08091E8008E778093E8001FCFFD010F
:100CE00030E020E0F2CF9B01FD01EDCF9091F300C9
:100CF0008091F200EACF8091220108959091230122
:100D0000913021F49091910297FD25C09091970127
:100D1000891302C01092970190919801891302C023
:100D20001092980190919901891302C01092990133
:100D300090919A01891302C010929A0190919B019F
:100D4000891302C010929B0190919C019813089501
:100D500010929C010895E82FE695E695E695EE3110
:100D6000B0F7F0E0E356FE4F877021E030E0A901D4
:100D700002C0440F551F8A95E2F7CA0180959281FF
:100D800089238283089590912301913021F49091D9
:100D9000910297FD6DC0EFEF20E0A22F022E000C14
:100DA000BB0BAC56BE4F13963C91831751F091E0AC
:100DB000920FEF3F39F0292F96307CF3963009F4EB
:100DC0004DC00895332309F447C09630D1F3E92F7D
:100DD000F0E0EC56FE4F3381831799F3E2E0E20F27
:100DE0004E2F332309F441C0E63058F7AE2FB0E060
:100DF000AC56BE4F13964C91841719F333E0320F63
:100E0000932F4423C1F23630E0F6E32FF0E0EC56A6
:100E1000FE4F43818417A9F2E4E0E20F9E2F4423A2
:100E2000E1F1E63070F6AE2FB0E0AC56BE4F13964F
:100E30003C91831731F295E0920F332309F4BBCF35
:100E4000953009F0BECF90919C01891709F4B9CF74
:100E50002A5F992321F10895E22FADCF0E2E000CC9
:100E6000FF0BEC56FE4F83830895E92F942FA3CFF9
:100E7000E82FE695E695E695EE3108F0A2CFF0E092
:100E8000E356FE4F877021E030E001C0220F8A95C3
:100E9000EAF78281822B82830895E32F8CCFE5E0ED
:100EA000922F8CCF811103C090E0892F08959091EB
:100EB00023019130D9F0909197019817A1F1909169
:100EC0009801891781F190919901891761F19091A9
:100ED0009A01891741F190919B01891721F191E0C5
:100EE00020919C012813E0CF892F089590919102C1
:100EF00097FFE1CFE82FE695E695E695EE31A0F66F
:100F0000877021E030E002C0220F331F8A95E2F79C
:100F1000F0E0E356FE4F828190E02823392391E0F0
:100F2000232B19F6C1CF91E0892F0895A3E0B0E0FB
:100F3000ECE9F7E00C94B93420918F0230919002E3
:100F400028173907A1F09093900280938F02E091C7
:100F50008D02F0918E02309751F024E029839B831B
:100F60008A830084F185E02DCE01019609952396B0
:100F7000E2E00C94D534A3E0B0E0E1ECF7E00C94AF
:100F8000B93420918B0230918C0228173907A1F0D7
:100F900090938C0280938B02E0918D02F0918E02EF
:100FA000309751F023E029839B838A830084F18565
:100FB000E02DCE01019609952396E2E00C94D534FC
:100FC000E0918D02F0918E02309729F00190F0812E
:100FD000E02D0995089580E008950E94E0070895A6
:100FE0008FB7F8944091E4025091E5026091E602D7
:100FF0007091E7028FBF8091870290918802892BC0
:1010000021F0509384024093830280918902909151
:101010008A02892B21F05093820240938102E09151
:101020008D02F0918E02309749F082E08093850224
:101030000680F781E02D85E892E00995089580917A
:10104000800280FD04C081FF04C084E0089582E036
:10105000089582FD16C080917F02882381F0883236
:1010600080F490E0880F991F880F991F880F991FAF
:1010700068E270E00E9479346115710521F481E025
:10108000089588E00895862F08958091800280FD5C
:1010900004C081FF04C088E2089584E1089582FDC0
:1010A00006C080917E02882321F08E3120F080E5F9
:1010B000089588E0089520E5829FC00111246EE123
:1010C00070E00E947934862F0895FC01EE0FFF1F17
:1010D000E80FF91FEE58FD4F618340832283089586
:1010E000529A08950895CF93DF9380916A0280FD0C
:1010F00014C0C0911E01D0911F01CD1770F48091D2
:101100001C01C81BD81B20E040E060E08C2F90E061
:101110000E946508CF5FDC13F6CF0E941412DF91A6
:10112000CF91089590916A0290FF0FC0243068F427
:1011300090911C01291B922F242F462F682F892F55
:1011400090E00E9465080E9473080895FF920F9333
:101150001F93CF93DF93182F062FF42E80916A02EE
:1011600080FF16C0C0911E01D0911F01CD1770F4F1
:1011700080911C01C81BD81B2F2D402F612F8C2F55
:1011800090E00E946508CF5FDC13F6CF0E947308E1
:10119000CDB7DEB7E5E00C94D234CF93DF93EC010A
:1011A00040916D029C81892F817090FD842F692F61
:1011B000627091FD642F92FF40E00E94A6088C812E
:1011C00090E00196877099278C83DF91CF910895E5
:1011D00080916A02982F9C7F29F4837084608093A9
:1011E0006A0208958C3A20F08370886A80936A02BC
:1011F0000895B0E0A0E0EFEFF8E00C94B334262FB0
:10120000472FE82FF0E0EF58FE4F772309F489C00D
:10121000072F10E0E491FE2FEE2EF12C36E0639FB5
:10122000C0011124CFEFD0E0BE010E94793430E03C
:10123000220F331F55E5569FC001579F900D112473
:10124000281B390B822F880F280FCE01801B910B92
:101250008E9DD0018F9DB00D9E9DB00D11248B2FC2
:10126000429FA0011124452F55276E01C41AD50AAB
:10127000CE9CA001CF9C500DDE9C500D11246E0120
:10128000C21AD108C09E9001C19E300DD09E300D73
:101290001124232F3327C21BD30BCE9D9001CF9D4A
:1012A000300DDE9D300D1124932F6230710509F44D
:1012B00043C088F06430710549F1E8F0663071058B
:1012C00011F09B2F852F6E2F792FCDB7DEB7E8E079
:1012D0000C94CF3435C061157105A9F361307105E7
:1012E00081F79E2FE52F6E2F792FCDB7DEB7E8E07F
:1012F0000C94CF3425C0952FEB2F8F2F6E2F792F85
:10130000CDB7DEB7E8E00C94CF341AC0E32F9B2FA3
:101310008F2F6E2F792FCDB7DEB7E8E00C94CF3446
:101320000FC0E4918E2F9E2F6E2F792FCDB7DEB791
:10133000E8E00C94CF3404C0EB2F832F9F2FC3CF52
:10134000762F90916A0290FF0895682F842F0E9453
:10135000F908962F672F482F892F0E94A608089515
:10136000CF93DF93EC01EAE6F2E0438162818C8166
:101370000E94A0098C818F5F8C83DF91CF910895AB
:10138000CF93DF93EC01EC81F0E0EA58FD4F4491FC
:10139000EAE6F2E0628181810E94A0098C818F5F80
:1013A0008C83DF91CF910895CF93762FC22F682F32
:1013B000842F0E94F908472F90911C01C91B282FE8
:1013C0008C2F90E00E946508CF9108950F931F9392
:1013D000CF93DF938C0190912001D0E0C0E0911178
:1013E0000DC029C041111CC040E00E94D4092196C3
:1013F000909120019C171D06F1F0ECF0F80144815A
:1014000020911E012C0F3D2F311D60916C028091A7
:101410006B0296959C171D0609F024F74111E4CF45
:1014200040916D020E94D4092196909120019C1751
:101430001D0609F01CF70E947308F801848190E0F2
:101440000196817099278483DF91CF911F910F912D
:101450000895B0E0A0E0EFE2FAE00C94AF348C0124
:10146000FC014481C42FD0E09E01DE010E94383689
:101470009B01AC010E9403364B015C01E0E2F0E00D
:10148000EC1BFD0BA5E5B0E0AC019B010E9403360F
:101490006B017C019F01DF010E949A349B01AC012A
:1014A0000E940E369B01AC01280D391D4A1D5B1DA3
:1014B000C701B6010E941636D22F30E0DA3208F0AA
:1014C00045C0A901440F551F420F531F559547951D
:1014D000F42EF094809120018823B1F0C0E085E5DE
:1014E000E82EED1A20911E012C0F3327331F4F2DAC
:1014F00060916C028E2DC1FD8D2F0E94D409CF5FAB
:1015000080912001C81770F30E947308F80184814C
:1015100081110CC091E090931B01890FF801848325
:10152000CDB7DEB7ECE00C94CB3422C090911B0118
:10153000803299F79FEF90931B01890FF801848304
:10154000CDB7DEB7ECE00C94CB3412C085E590E06B
:10155000821B930BAC01440F551F480F591F57FFB7
:1015600002C04F5F5F4F55954795F42EF094B2CF70
:101570001F93CF93DF93C0911E0110911F01C117DC
:1015800078F480911C01DC2FD81B181B20E040E070
:1015900060E08D2F90E00E946508DF5FD113F6CFE9
:1015A00060912001D0E0611112C037C080911C0110
:1015B000C81B20E040E060E08C2F90E00E946508AE
:1015C000DF5F60912001D61740F5C0911E01ED2F1D
:1015D000F0E070E0CF010E947934C80F809155028D
:1015E000082E000C990BE817F90704F380911A01F3
:1015F000082E000C990B8E179F07C4F22C2F30E099
:1016000040916D0260916C0280916B020E94D4093E
:10161000DF5F60912001D617C0F20E94730820910D
:10162000190180915502820F8093550290911A0101
:10163000920F90931A01191654F4082E000C990B6E
:10164000409120014150550B841795071CF02195BE
:1016500020931901DF91CF911F910895A4E0B0E08C
:10166000E4E3FBE00C94B434209120012A83FC01D4
:10167000828180FDF8C0222309F4FFC0A3E0EA2E96
:10168000B2E0FB2E01E021E0298310E0D0901E01A2
:1016900080911C019D2D981B892F810F20E040E037
:1016A00060E090E00E94650880915402482F8530E8
:1016B0000CF4C6C04370E12FF0E0FC83EB83042EF2
:1016C000000C550BE417F50709F4BFC0402F480F75
:1016D00045300CF48BC04370042E000C550B2B814D
:1016E0003C812417350709F48FC04F2D480F453032
:1016F0000CF45BC04370042E000C550BEB81FC8195
:10170000E417F50709F45FC08E0D853034F183705E
:10171000082E000C990B2B813C812817390751F1B9
:101720001F5FE0912001EA831E1708F4AFCF0E94EB
:101730007308F981F13009F4A2C08091540290E05D
:1017400001966091200170E00E94793480935402E8
:101750002496E7E00C94D034ABC087FFD9CF9091AA
:101760002001890F082E000C990B2B813C81281732
:101770003907B1F6C90120911E01820F911D9C010C
:1017800040916D0250E0559547955595479560916C
:101790006C0280916B020E94D4091F5F909120011E
:1017A0009A83191708F472CFC2CF47FFA4CF909144
:1017B0002001490F042E000C550BEB81FC81E4172E
:1017C000F50709F0A1CF20911E01E20FF11D9F0145
:1017D00040916D0250E05695479560916C02809162
:1017E0006B020E94D409809154028ECF47FF74CFC0
:1017F00090912001490F042E000C550B2B813C8148
:101800002417350709F071CFC90120911E01820FFD
:10181000911D9C0140916D02842F90E0AC01440F1A
:10182000551F480F591F55954795559547956091F8
:101830006C0280916B020E94D4098091540255CFB2
:1018400087FF39CF4A81480F36CF9F012D0D311DBB
:1018500040916D0260916C0280916B020E94D409EC
:101860008091540233CF222301F1EDEFEE2EFEEFF3
:10187000FF2E0FEF3FEF398308CF0E94730880914E
:10188000540281110AC0809120018150809354023A
:101890002496E7E00C94D0340BC08150809354021E
:1018A0002496E7E00C94D03403C00E94730845CF1F
:1018B000EF92FF920F931F93CF938C0160912001C1
:1018C0006623F1F0C0E0EE24EA94F12C20911E0191
:1018D0002C0F3327331F70E0C7010E947934962FF5
:1018E000F801848140916D0260916C02C99F800D66
:1018F00011240E94D409CF5F60912001C61730F3F4
:101900000E947308F801828180FF09C084818F5F83
:101910008483CF911F910F91FF90EF900895848160
:1019200081508483CF911F910F91FF90EF90089584
:1019300080E00895E82FF0E0EF59FE4F80818F3F5F
:10194000C1F0F894E82FE295EF70F0E041A18F70BC
:1019500021E030E0B90102C0660F771F8A95E2F7F7
:10196000CB01962F9095942391A392A1892B82A3CA
:10197000789408959091910292FF10C041E0282F31
:101980002471243009F040E031E0282F28712830FC
:1019900009F030E0431711F02CE0822793FF10C0CC
:1019A00041E0282F2471243109F040E031E0282F54
:1019B0002871283109F030E0431711F02CE082271C
:1019C0002091920220FF10C051E0382F3171313048
:1019D00009F050E041E0382F3871383009F040E02C
:1019E000541711F039E0832721FF10C041E0282F60
:1019F0002171213109F040E031E0282F2871283190
:101A000009F030E0431711F029E0822794FD877E2A
:101A100008958238910509F442C008F1833E91058A
:101A200009F466C060F0863E910509F44FC0873E18
:101A3000910509F452C0843E9105E9F10895803E74
:101A4000910509F472C0823E9105A1F520919102A1
:101A500022FFF4CF24FF72C090E080E0089581332C
:101A6000910509F45BC070F48932910509F44BC00B
:101A70008A329105F1F42091910226FFDFCF81E3B4
:101A800090E008958533910539F42091910225FF66
:101A9000D5CF89E290E008958933910549F42091EA
:101AA0009102237069F52091920223FDF2CF0895EF
:101AB0000895089508952091920221FFBFCF80914B
:101AC000910284FDC9CF87EE90E0089520919102A4
:101AD00023FFB4CF24FDC0CFF6CF2091910223FD88
:101AE00030C03091920231FD35C024FDB5CF08954C
:101AF0002091910222FD2BC03091920230FFF5CF50
:101B000080EE90E008952091910225FD1DC0209166
:101B1000920223FF93CF89E390E0089520919102F0
:101B200026FF8CCF8AE290E008952091910220FD5B
:101B3000F2CF3091920230FD8DCF089583EE90E088
:101B4000089586EE90E0089585E390E0089582EE92
:101B500090E0089584EE90E008951F93CF93DF9373
:101B60000E94090DEC01C11580E5D807E8F4C11504
:101B700080E4D80708F009C1C03ED10508F07DC057
:101B8000CD3CD10508F00BC1C83AD10508F067C0BB
:101B9000C53AD10508F005C1C130D105B1F5CE0176
:101BA000DF91CF911F910895C03682E5D807C8F51F
:101BB000C03482E5D80708F0C0C0C03282E5D8073B
:101BC00008F0D0C0C11582E5D80708F0A2C08C2F5C
:101BD0008F710E94BA0CD695C795D295C295CF70D9
:101BE000CD27DF70CD27CF70D0E0DC2FCC27282F7A
:101BF00030E084FF06C022953295307F3227207F67
:101C00003227C22BD32BD069CACF209741F2C430E0
:101C1000D10528F6D0E0C0E0CE01DF91CF911F9131
:101C20000895C03A82E5D807C0F5C03882E5D807E4
:101C300008F068C02C2F26952695277080E2289FF3
:101C4000900111248C2F8370C1E0D0E002C0CC0F32
:101C5000DD1F8A95E2F7C22BD32BDA68A0CFC33CF5
:101C6000D105C0F6C85AD0E0CC0FDD1FCB5DDE4FEA
:101C70000990D881C02DD46492CFC11580E2D807D5
:101C8000E8F4C11581E0D80760F5C83ED10510F62B
:101C9000CE01DF91CF911F910895C03C82E5D80716
:101CA00008F467C0C03E82E5D80708F0B3CFDC2F48
:101CB000CC27CC27DF71C06FD06A71CF8D2F8F7189
:101CC0000E94BA0C182FCE0199270E94090DC12F2E
:101CD000D0E0DC2FCC27CC27DF71C82BD92BD062EA
:101CE0005ECF8D2F0E94BA0C182FCE0199270E942B
:101CF000090DC12FD0E0DC2FCC27CC27DF71C82BFA
:101D0000D92B4DCFCF71D0E0DC2FCC27C46FD06A58
:101D100046CF2C2F2695269580E2289F90011124EE
:101D20008C2F8370C1E0D0E002C0CC0FDD1F8A95FC
:101D3000E2F7C22BD32BDD6832CF2C2F26952695C8
:101D4000277080E2289F900111248C2F8370C1E0BE
:101D5000D0E002C0CC0FDD1F8A95E2F7C22BD32B57
:101D6000DC681DCFCF71D0E0DC2FCC27C16FD06AEB
:101D700016CF8C2F8F710E94BA0CC82FD0E0DC2FA9
:101D8000CC27CC27DF71D0620ACFCE0199270E94E1
:101D9000090DCC27DF70C82BD92BD06A00CFD065B6
:101DA000FECEC55AD0E0CC0FDD1FC55ADE4F0990DC
:101DB000D881C02DD064F3CE809590910D029823E8
:101DC00090930D02089580910D029091E301892B6B
:101DD0009091E201911101C00895892B9091230106
:101DE0009130A1F025E0E7E9F1E030E02F5F3F4FCF
:101DF0002E0F3F1F90E0419141119F5F2E173F072B
:101E0000D1F7992349F31092E2010895909191023C
:101E10002DE1EFE9F1E097FDE8CFE4CF8091E30217
:101E20009091AA02891721F08F5F87708913FCCFE8
:101E30000895953010F48E3010F080E00895282F2A
:101E400030E0A9016EE0969F400D511D1124CA019A
:101E50009A01369527953695279536952795F90158
:101E6000EE0FFF1FE20FF31FE154FE4F282F2770E4
:101E7000818190E0022E02C0969587950A94E2F740
:101E8000880F991F82709927408150E0022E02C06E
:101E9000569547950A94E2F741705527842B428165
:101EA00050E0BA0102C0769567952A95E2F79B014A
:101EB000220F331F220F331F24703327822B0895E4
:101EC000953010F48E3008F00895282F30E0A901E5
:101ED0007EE0979F400D511D1124CA019A0136954D
:101EE00027953695279536952795F901EE0FFF1F13
:101EF000E20FF31FE154FE4F877041E050E001C054
:101F0000440F8A95EAF7862F90E0208161706195F1
:101F1000622764236227608351819C01369527954F
:101F20002170219525272423252721832281969519
:101F3000879596958795817081958227842382273E
:101F400082830895662359F18D3C09F445C08E3C87
:101F500009F478C08F3C09F46AC0803D09F48FC051
:101F6000893D09F4B7C08A3D09F483C08B3D09F46B
:101F7000BEC08C3D09F4C1C09FE2980F983008F0B4
:101F8000C1C0815D990B21E030E001C0220F8A952C
:101F9000EAF780918602822B8093860222C03091DC
:101FA0008902209187028D3C09F447C08E3CE1F004
:101FB0008F3C69F1803DB1F1893D09F44AC08A3D09
:101FC00009F454C08B3D09F05FC080918A0287FFFD
:101FD00020C010928A021DC00E94450881958093FE
:101FE00088020E94F00708958091880218168CF4E8
:101FF00010928802222399F03111F3CF80918A0246
:102000008111EFCF10927F020E94F007089527FD03
:102010000BC02111F1CF809188028111EDCF109278
:102020007E02EACF1216ACF710928702F4CF0E941C
:102030004508819580938702D4CF8091880287FFDD
:10204000E8CFD6CF0E944508809388020E94F0070F
:1020500008951316F4F6109289022111CFCF8091C2
:1020600088028111CBCF10927E02C8CF37FFD1CF2B
:10207000F2CF0E941F08819580938902B2CF0E94FF
:10208000450880938702ADCF8C3D31F480918A0260
:1020900018160CF49ECFBDCF9FE2980F983090F4A5
:1020A000815D990B41E050E0BA0102C0660F771FD5
:1020B0008A95E2F7CB0180959091860289238093DF
:1020C0008602A7CF8D3D59F4809180028E7F809348
:1020D00080029FCF0E941F088093890282CF8E3D8D
:1020E000F1F4809180028D7F8093800292CF0E94D4
:1020F0001F08819580938A0274CF0E941F088093E5
:102100008A026FCF8D3DA1F08E3DC1F08F3D09F069
:1021100068CF8091800284608093800262CF8F3D7F
:1021200009F077CF809180028B7F8093800271CFFE
:102130008091800281608093800253CF80918002E1
:102140008260809380024DCF833029F140F481304A
:10215000E9F08230C9F40E94ED078170089588305B
:1021600098F49CEF980F80911C02882359F0282F37
:1021700030E0A90102C0559547959A95E2F7CA014A
:102180008170089581E0911180E008950E94ED072B
:102190008695817008950E94ED0782FB882780F95B
:1021A0000895A3E0B0E0E7EDF0E10C94B5340CE263
:1021B00012E0F8018581882371F1F3808F2D8F70F3
:1021C0000E94A410E82E8F2D82958F700E94A4107B
:1021D000E11002C08823F9F0F80191818281208109
:1021E00029839A838B8369817A818B810E94F90884
:1021F000962F672FF8012481482F892F0E9492087B
:102200000A5F1F4FF2E00E331F0799F681E0239615
:10221000E6E00C94D134F801248140E060E080E0F5
:102220000E949208EDCFCF9390911C0221E030E004
:10223000F90101C0EE0F8A95EAF7D90102C0AA0F91
:10224000BB1F6A95E2F7EA2B01C0220F4A95EAF715
:10225000892F8E23C92FC22BE81719F02095C22F82
:10226000C9230E94D110C0931C02CF910895CF932F
:1022700021E030E001C0220F8A95EAF72095C09155
:102280001C02C2230E94D110C0931C02CF9108955A
:102290009091E101809589238093E101282F277097
:1022A00029F4891719F09091920292FF089586956A
:1022B000869586950E9437111092E1010895CF937B
:1022C000DF93C1E0D0E09E0102C0220F331F8A9548
:1022D000E2F7C0911C02C22B0E94D110C0931C02D5
:1022E000DF91CF9108950F931F93CF93DF938B01CD
:1022F000EA019091A0029430D1F48093E90080919A
:10230000E80085FD10C0F5EDFA95F1F700008EEFBD
:1023100006C095ED9A95F1F70000815021F090915B
:10232000E80095FFF6CF8091E80085FD0AC0DF91B7
:10233000CF911F910F9108958091E8008E7780933F
:10234000E8000E942F0581110BC08091E80085FFF5
:10235000F3CFF80181918F018093F1002197A9F7C4
:102360008091E8008E778093E800DF91CF911F91F4
:102370000F91089543E050E0BC0183E00E94731187
:10238000089546E050E0BC0183E00E947311089577
:1023900040E250E0BC0183E00E9473110895CF93A6
:1023A000DF93EC0180912301811113C048E050E0DC
:1023B000BE016F5F7F4F83E00E94731189E0FE01D1
:1023C000A5E9B2E001900D928A95E1F7DF91CF91F6
:1023D000089549E050E0BE0183E00E947311EECF02
:1023E00081E08093E00080E28093D8001092C900E1
:1023F0008FE19EE40197F1F700C0000087E090EBC9
:10240000DC018093EB029093EC02A093ED02B09379
:10241000EE0288E19CE00FB6F894A89580936000E6
:102420000FBE90936000FFCF9BB19B7F8BB1846008
:102430002FB7F894E2E7F2E0308148E08BB9000072
:1024400000C037FF9BB9330F000000C000C000C0C0
:102450009BB900C04A9591F7318148E08BB90000E3
:1024600000C037FF9BB9330F000000C000C000C0A0
:102470009BB900C04A9591F7328148E08BB90000C2
:1024800000C037FF9BB9330F000000C000C000C080
:102490009BB900C04A9591F7338148E08BB90000A1
:1024A00000C037FF9BB9330F000000C000C000C060
:1024B0009BB900C04A9591F7348148E08BB9000080
:1024C00000C037FF9BB9330F000000C000C000C040
:1024D0009BB900C04A9591F7358148E08BB900005F
:1024E00000C037FF9BB9330F000000C000C000C020
:1024F0009BB900C04A9591F7368148E08BB900003E
:1025000000C037FF9BB9330F000000C000C000C0FF
:102510009BB900C04A9591F7378148E08BB900001C
:1025200000C037FF9BB9330F000000C000C000C0DF
:102530009BB900C04A9591F7308548E08BB90000FF
:1025400000C037FF9BB9330F000000C000C000C0BF
:102550009BB900C04A9591F7318548E08BB90000DE
:1025600000C037FF9BB9330F000000C000C000C09F
:102570009BB900C04A9591F7328548E08BB90000BD
:1025800000C037FF9BB9330F000000C000C000C07F
:102590009BB900C04A9591F7338548E08BB900009C
:1025A00000C037FF9BB9330F000000C000C000C05F
:1025B0009BB900C04A9591F72FBF8FE594E0019732
:1025C000F1F700C000000895882381F065E286E3FA
:1025D00090E00E94C03561E087E390E00E94C03542
:1025E00068E188E390E00E94C03508956FEF86E3CC
:1025F00090E00E94C0356FEF87E390E00E94C03505
:102600006FEFEFCFCF93DF93C2E8D3E060E0CE016E
:102610000E94C0352196C11584E0D807B9F7DF9133
:10262000CF9108951F93CF93DF93122F8630E0F45C
:102630006530D0F44E30C0F4C42FD0E0CC0FDD1F95
:102640009CE1699FC00DD11D11249CE8899FC00D9C
:10265000D11D1124632FCE01CA960E94C035612F6F
:10266000CE01CB960E94C035DF91CF911F91089586
:10267000B0E0A0E0EEE3F3E10C94B23486E7C82EBC
:1026800083E0D82EB12C7601D0E082E08B15E8F4FF
:10269000C0E021E030E04C2F6D2F8B2D0E941213F3
:1026A000CF5FCE30B1F7DF5F8CE1E80EF11CD530A3
:1026B00061F7B3948CE8C80ED11C86E0B812E3CF62
:1026C000CDB7DEB7E9E00C94CE348701C0E0F80165
:1026D000259134914C2F6D2F8B2D0E9412130E5F7C
:1026E0001F4FCF5FCE3099F7DF5F8CE1E80EF11C12
:1026F000D53059F6DECF80E00E94E41260E089E335
:1027000090E00E94C0350E9438130E94021381E0BD
:102710000E94E412089586E390E00E949C35853281
:1027200019F090E0892F089587E390E00E949C358E
:102730008130B9F788E390E00E949C3591E08831C0
:1027400081F7F0CF0F931F93CF93DF93863030F54F
:10275000653020F54E3010F5C42FD0E0CC0FDD1FD2
:102760002CE1629FC00DD11D11243CE8839FC00D58
:10277000D11D1124CE01CA960E949C35082F10E06D
:10278000102F0027CE01CB960E949C359801282B54
:10279000C901DF91CF911F910F91089590E080E0E2
:1027A000DF91CF911F910F910895753010F46E3025
:1027B00018F090E080E008958630D8F7462F672F14
:1027C0000E94A2130895EF92FF921F93CF93DF937D
:1027D0007C0110911C0280911B02182BC12F15FD4A
:1027E00018C0C4FD20C0C3FD28C0C2FD30C0C1FD5B
:1027F00038C010FD07C080E0DF91CF911F91FF909E
:10280000EF900895B70180E00E94D5130E94AD0DAE
:10281000F2CFB70185E00E94D5130E94AD0D01975C
:1028200001F385E0E9CFB70184E00E94D5130E944F
:10283000AD0D0197C1F284E0DFCFB70183E00E94C4
:10284000D5130E94AD0D019781F283E0D5CFB7017A
:1028500082E00E94D5130E94AD0D019741F282E003
:10286000CBCFB70181E00E94D5130E94AD0D019737
:1028700009F4BFCF81E0C0CFCF93DF93EC010E947A
:10288000E313BE010E94D5130E94AD0DDF91CF91DD
:102890000895FC012481211102C080E00895808107
:1028A00091810E943C1492959F70963091F058F45B
:1028B000925F9F70923088F7803F19F080F4883ED5
:1028C00060F781E008959A5F9F709230A8F380E0EE
:1028D0000895883EB0F3813FA1F380E00895843FDE
:1028E000E1F6EFCFA6E0B0E0E8E7F4E10C94B6340F
:1028F00049835A83992311F021110FC009811A814C
:10290000C8010E94190FF82EB8018F2D0E94D5130F
:102910002696E5E00C94D23414C089819A810E94F5
:10292000E313F82E682F89819A810E94600F098134
:102930001A81B8018F2D0E94D5132696E5E00C94DC
:10294000D234B0E0A0E0E7EAF4E10C94A934FC0151
:102950005280448081E08483E6E7F2E03490E5EF42
:10296000F2E0A49080916D0286958158C82ED12CFA
:10297000CC0CDD1CCD2CDD2480912001882309F4B2
:1029800093C0612C88248A94912C22242A94EA2DC5
:10299000E319AE2EB12C23C0E801CC0FDD1FCC0F04
:1029A000DD1F411033C0FE01E00FF11FEA5AFD4F59
:1029B00013821282712C20911E01200F312F311DA4
:1029C000C00FD11FCA5ADD4F472D698188810E94EF
:1029D000D409639480912001681608F065C0062D23
:1029E00010E022E02515C0F290916B0280916C02FC
:1029F000E801CC0FDD1FCC0FDD1FFE01E00FF11F42
:102A0000EA5AFD4F90838183442069F2CE01800F02
:102A1000911FFC01EA5AFD4F7F0173807720F9F086
:102A20007A947382729CC0011124648170E00E94C8
:102A30006534FB01FF27EA58FD4F8491E82FE31925
:102A4000E29DC0011124B5010E94653480916D02A0
:102A5000689FB0011124772EF7017283ACCF0E94DA
:102A60006235B4010E9479348C159D051CF0F70184
:102A70007280A1CFF2E0F515F0F0FE01E00FF11F3A
:102A8000EA5AFD4F128280916D02893C48F088EC31
:102A9000FE01E00FF11FEA5AFD4F848383838BCF41
:102AA0008431B0F784E1F4CF0E947308CDB7DEB76C
:102AB000E2E10C94C5340E946235B4010E9479347D
:102AC000F70180830E94623520916C022695622F67
:102AD00070E00E947934280FF7012183CECFB0E057
:102AE000A0E0E5E7F5E10C94AF3449015A016B0130
:102AF0007C010E94E8088401A4016A2D7B2D88E0F6
:102B000090E00E94D23594014A2D5B2DB601C70199
:102B100000E20E94FB34622F83E290E00E94C03505
:102B2000CDB7DEB7ECE00C94CB34EF92FF920F936D
:102B30001F93CF93DF93C82F162FD42F022F80918E
:102B40006A0280FF2CC0282F26952695E22FF0E000
:102B5000EA59FE4F9081909352028C7F843021F18C
:102B6000923089F1963061F1993051F1993171F1DA
:102B7000C0936B0210936C02D0936D02002379F026
:102B800020916A0260916E0270916F023C2F412F7A
:102B90005D2F80917002909171020E946F15CDB7E8
:102BA000DEB7E6E00C94D1346C2F712F842F0E9495
:102BB000F908962F672F482F892F0E94A608D8CF93
:102BC000C0916B02D5CFD0916D02D2CF2951822F07
:102BD0008170E82E2695E22FF0E0EF58FD4FF4903B
:102BE000609120016623D9F08823E1F0E12CEF9C6D
:102BF000C001112470E00E946534862F20911E01CF
:102C00002E0D3327331F4D2F612F9C2F981B892F9B
:102C10000E94D409E39460912001E61640F30E94DB
:102C20007308A6CFEF9CC001112470E00E946534A8
:102C3000862F20911E012E0D3327331F4D2F612F1C
:102C40008C0F0E94D409E39460912001E61650F3A2
:102C5000E6CFEAE6F2E0438121E1421B08F440E0DE
:102C600021E0628181810E9495150895EAE6F2E0F3
:102C7000438121E1420F08F44FEF21E0628181811D
:102C80000E9495150895EAE6F2E0628121E1621B57
:102C900008F460E021E0438181810E949515089548
:102CA000EAE6F2E0628121E1620F08F46FEF21E0D1
:102CB000438181810E9495150895EAE6F2E08181C1
:102CC00021E04381628188500E9495150895EAE6CB
:102CD000F2E0818121E043816281885F0E94951545
:102CE000089580916E02882319F0815080936E02BE
:102CF00020916A0230916B0240916C0250916D02FA
:102D000060916E0270916F028091700290917102D9
:102D10000E946F15089580916E02833018F48F5FC2
:102D200080936E0220916A0230916B0240916C0296
:102D300050916D0260916E0270916F0280917002ED
:102D4000909171020E946F15089590916A0290FF10
:102D500021C0811120C09370946090936A0281E039
:102D6000611122C0682F70E04BE050E08EE091E0EE
:102D70000E947235892BC1F11092530281E0809339
:102D80004F0220E040916D0260916C0280916B02D5
:102D90000E94951508958B32F0F09370986A909385
:102DA0006A028AE26623F1F220916A0230916B0294
:102DB00040916C0250916D0260916E0270916F02B1
:102DC00080917002909171020E946F1580916A0249
:102DD00086958695C7CF8F73282F220F220F937069
:102DE000922B90936A02BCCF81E0809353022FB75D
:102DF000F8948091E4029091E502A091E602B091EE
:102E0000E7022FBF90934D0280934C02B7CF809181
:102E10006A0286958695815009F48AE261E00E94F3
:102E2000A516089580916A02869586958F5F8B32EC
:102E300008F081E061E00E94A5160895CF93DF932A
:102E4000EC0142E150E060E070E08FE090E00E9431
:102E5000D23542E150E064E270E0CE010E94B0352C
:102E6000DF91CF9108959091920292FB222720F951
:102E7000281301C0089580FB92F99093920260910B
:102E800091027091920284E090E00E94DE3582E02F
:102E90000E944811089580912301813021F480918E
:102EA000910287FD28C00E94E30E8093950149E0BE
:102EB00050E064E072E084E991E00E947F35892B64
:102EC00009F4089589E0E4E9F1E0A4E0B2E00190BA
:102ED0000D928A95E1F7E0918D02F0918E02309784
:102EE00081F381E0809394010280F381E02D84E9F5
:102EF00091E0099508950E94E30E80939E0140E2BF
:102F000050E064EE71E08DE991E00E947F35892BFD
:102F1000C1F280E2EDE9F1E0A4EEB1E001900D92A2
:102F20008A95E1F7E0918D02F0918E02309749F297
:102F300086E080939D010480F581E02D8DE991E08C
:102F40000995089510920D0280912301813021F49A
:102F50008091910287FD23C0E7E9F1E086E0DF017F
:102F60001D928A95E9F790E080E00E94BB0790E00F
:102F700080E00E9496071092E3010E944B1786E0C2
:102F8000E5E8F2E0DF011D928A95E9F710927E02F2
:102F900010927F02109280020E94F0070895EFE9DC
:102FA000F1E08EE1DF011D928A95E9F7DCCFAAE21C
:102FB000B0E0EDEDF7E10C94B8349091F10090930E
:102FC000A2028091F1008093A3022091F10020934E
:102FD000A4022091F1002093A5022091F1002093FA
:102FE000A6022091F1002093A7022091F1002093E6
:102FF000A8022091F1002093A902833009F41EC396
:1030000028F18A3009F477C38B3009F483C38930FF
:1030100009F4D8C08091E80083FF06C09091A20215
:103020008091A3028A30E8F08091E80083FF0AC013
:103030008091E800877F8093E8008091EB008062B8
:103040008093EB00AA96E3E00C94D434813009F429
:1030500037C38230F9F6913A09F478C38091E800D9
:10306000E3CFE82FF0E0E75BF94C0C948D34903817
:10307000D9F68091E800877F8093E8008091A102D3
:103080008093F1008091E8008E778093E8000E94A1
:103090006005CACF9058923038F68091A402909182
:1030A000A5028C3D23E0920709F402C44091A602D8
:1030B0005091A702292F33272330310509F43DC44D
:1030C00008F0CCC32130310509F4EBC322303105BF
:1030D00009F0AACF22E430E088E396E04091E800CE
:1030E000477F4093E8004091A8025091A90224171D
:1030F000350708F4A90160E04115510509F056C3F0
:1031000061110FC064C3253081F02091E80023FDD8
:103110000CC02091E80022FD5AC32091E80020FD58
:10312000C9C42091A0022111EECF8091E8008B77D5
:103130008093E80079CF911177CF1091A4021F7787
:103140008091E3008078812B8093E3008091E800F8
:10315000877F8093E8000E9460058091E80080FFEF
:10316000FCCF8091E30080688093E30082E011113E
:1031700083E08093A00258CF903809F482C392383C
:1031800009F052CF8091A6028F70873008F04CCFA3
:103190008093E9008091EB0085FB882780F91092ED
:1031A000E9009091E800977F9093E8008093F10008
:1031B0001092F1008091E8008E778093E8000E94E1
:1031C000600532CF913209F41AC38091E80083FF81
:1031D0002BCF911129CF1091A402123008F024CFE7
:1031E0008091E800877F8093E8001093A1020E94FD
:1031F0006005111154C38091E30087FD50C381E045
:103200008093A00283E08093E9008091EB008E7FA1
:103210008093EB008091ED008D7F8093ED00809195
:10322000EB0081608093EB0081EC8093EC0082E204
:103230008093ED001092F0008091EE0087FF6FC048
:1032400084E08093E9003091EC009091ED002091B2
:10325000F00091FF19C08091EB008E7F8093EB000E
:103260008091ED008D7F8093ED008091EB00816077
:103270008093EB003093EC009093ED002093F000EE
:103280008091EE0087FF4BC085E08093E90030918C
:10329000EC009091ED002091F00091FF19C0809119
:1032A000EB008E7F8093EB008091ED008D7F80930B
:1032B000ED008091EB0081608093EB003093EC0097
:1032C0009093ED002093F0008091EE0087FF27C0DF
:1032D00086E08093E9003091EC009091ED00209120
:1032E000F00091FF19C08091EB008E7F8093EB007E
:1032F0008091ED008D7F8093ED008091EB008160E7
:103300008093EB003093EC009093ED002093F0005D
:103310008091EE0087FF03C083E08093E90081E0A5
:103320008093E9008091EB008E7F8093EB00809189
:10333000ED008D7F8093ED008091EB0081608093A4
:10334000EB0081EC8093EC0082E28093ED00109220
:10335000F0008091EE0087FFB7C082E08093E90023
:103360003091EC009091ED002091F00091FF19C098
:103370008091EB008E7F8093EB008091ED008D7F3C
:103380008093ED008091EB0081608093EB0030939F
:10339000EC009093ED002093F0008091EE0087FF09
:1033A00093C083E08093E9003091EC009091ED00B0
:1033B0002091F00091FF19C08091EB008E7F8093E7
:1033C000EB008091ED008D7F8093ED008091EB000C
:1033D00081608093EB003093EC009093ED0020939C
:1033E000F0008091EE0087FF6FC084E08093E900D9
:1033F0003091EC009091ED002091F00091FF19C008
:103400008091EB008E7F8093EB008091ED008D7FAB
:103410008093ED008091EB0081608093EB0030930E
:10342000EC009093ED002093F0008091EE0087FF78
:103430004BC085E08093E9003091EC009091ED0065
:103440002091F00091FF19C08091EB008E7F809356
:10345000EB008091ED008D7F8093ED008091EB007B
:1034600081608093EB003093EC009093ED0020930B
:10347000F0008091EE0087FF27C086E08093E9008E
:103480003091EC009091ED002091F00091FF19C077
:103490008091EB008E7F8093EB008091ED008D7F1B
:1034A0008093ED008091EB0081608093EB0030937E
:1034B000EC009093ED002093F0008091EE0087FFE8
:1034C00003C081E08093E90082E08093E90080916D
:1034D000EB008E7F8093EB008091ED008D7F8093D9
:1034E000ED008091EB0081608093EB0080EC809395
:1034F000EC0082E28093ED001092F0008091EE00EB
:1035000087FF93C083E08093E9003091EC009091B5
:10351000ED002091F00091FF19C08091EB008E7FAB
:103520008093EB008091ED008D7F8093ED00809182
:10353000EB0081608093EB003093EC009093ED0002
:103540002093F0008091EE0087FF6FC084E08093AD
:10355000E9003091EC009091ED002091F00091FF96
:1035600019C08091EB008E7F8093EB008091ED007D
:103570008D7F8093ED008091EB0081608093EB0064
:103580003093EC009093ED002093F0008091EE00DA
:1035900087FF4BC085E08093E9003091EC0090916B
:1035A000ED002091F00091FF19C08091EB008E7F1B
:1035B0008093EB008091ED008D7F8093ED008091F2
:1035C000EB0081608093EB003093EC009093ED0072
:1035D0002093F0008091EE0087FF27C086E0809363
:1035E000E9003091EC009091ED002091F00091FF06
:1035F00019C08091EB008E7F8093EB008091ED00ED
:103600008D7F8093ED008091EB0081608093EB00D3
:103610003093EC009093ED002093F0008091EE0049
:1036200087FF03C082E08093E9008091A00284308C
:1036300009F43CC181E080932401F6CC913A09F46D
:10364000CBC02091E80023FFEFCC992309F493C06D
:10365000923009F0E9CC8091A402811127C08091B9
:10366000A6028F709FEF980F963008F0DDCC809304
:10367000E9009091EB0090FF19C09091A302933064
:1036800009F40DC29091EB0090619093EB0021E062
:1036900030E001C0220F8A95EAF72093EA001092E9
:1036A000EA008091EB0088608093EB001092E900C3
:1036B0008091E800877F8093E8000E946005B4CC89
:1036C000913A09F0BECF8091E800877F8093E800AF
:1036D0008091A6029091A702892B09F0BAC069E0F7
:1036E00070E085E992E00E9481058091E8008B7787
:1036F0008093E8008FCC913209F0B0CC8091E80043
:10370000877F8093E8000E9460058091A5028093E6
:10371000210180CC913209F0A1CC8091A602909138
:10372000A702892B09F09ACC8091E800877F8093CB
:10373000E8000E94600581E09091A402911101C00F
:1037400080E0809323010E94A21764CC8091E8005E
:10375000877F8093E8008091E80080FFFCCF809114
:1037600021018093F1008091E8008E778093E8003A
:103770000E9460054FCC9091A402913009F054CC86
:1037800091E0833009F090E090939F028FCF253035
:1037900009F4CBCC2091E80023FDC7CC2091E800B0
:1037A00022FD15C02091E80020FDDCC02091A00280
:1037B0002111EDCFBACC8091A002882309F4B5CCB9
:1037C000853009F4B2CC8091E80083FDAECC8091C5
:1037D000E80082FFF0CFA9CC8091A6029091A702C9
:1037E000892B09F03BCC8091E800877F8093E8002B
:1037F0008091E80080FFFCCF80912301B2CF20911F
:10380000A6023091A702232B09F0DFCC8091E800BB
:10381000877F8093E80005C08091A002882309F487
:10382000F9CB8091E80082FFF7CF9091F30080916F
:10383000F200029779F58091F100813059F18630DC
:1038400049F18091E8008B778093E8000E94600541
:10385000E1CB70E060E090E080E045CF21323105BF
:1038600009F45EC02232310509F0DECB4115510565
:1038700009F410C14130510509F0D6CB8AE195E039
:103880002DCC80919E0290919F02992309F489CCBE
:10389000826087CC8091F10080932201D2CF84E0B6
:1038A000AFCC22E130E08AE796E018CC82E0C3CECC
:1038B00083E08A838AE289835FB7F894DE011396F6
:1038C00080E09EE041E20CC0EF702E2F30E0EA3045
:1038D00090F0295C3F4F2D933D938F5F843171F0C1
:1038E000E92FF0E040935700E49180FFEDCFE2959F
:1038F000EF709F5FEACF205D3F4FEDCF5FBF8091BC
:10390000E800877F8093E8006AE270E0CE010196CC
:103910000E9481058091E8008B778093E80084CB3A
:103920004115510509F4A5C04130510509F07CCB82
:1039300029E030E083E696E0D1CB992781309105EC
:1039400009F4A2C0009709F499C0029709F06CCB62
:10395000ECE8F6E0249130E0CF012115310509F4BF
:1039600063CBBCCB2091F3006091F200722F9B01DE
:103970006830710508F072C0FC0124912093F100B9
:103980003196DA0111979B012F5F3F4F109709F491
:1039900099C02830310509F492C0E491E093F10018
:1039A000FC01329611972F5F3F4F109709F48AC0A0
:1039B0002830310509F483C0E491E093F100FC0163
:1039C000339611972F5F3F4F109709F47BC0283033
:1039D000310509F474C0E491E093F100FC013496E0
:1039E00011972F5F3F4F109709F46CC028303105B5
:1039F00009F465C0E491E093F100FC01359611975C
:103A00002F5F3F4F109709F45DC02830310509F44E
:103A100056C0E491E093F100FC01369611972F5FB8
:103A20003F4F109709F44EC02830310509F447C0C4
:103A3000E491E093F100FC01379611972F5F3F4F1F
:103A4000109709F43FC02730310579F5E491E093F0
:103A5000F10008964850510928E030E061E0283034
:103A6000310509F060E02091E8002E772093E8000E
:103A700043CB29E030E08AE496E030CBE0ECF6E09E
:103A8000249130E0CF0169CFE8E9F6E0249130E0FD
:103A9000CF0163CF2CEF30E08CE395E01FCB80911A
:103AA000EB0080628093EB0001CECF01AD0128E0F6
:103AB00030E0D4CF3091F3002091F200CFCFCF018E
:103AC000AD01CCCFCF0150E040E0C8CF0E94A2179B
:103AD0002FEF84E39CE0215080409040E1F700C04C
:103AE000000088E19CE00FB6F894A89580936000F0
:103AF0000FBE90936000FFCF811101C008950E9416
:103B0000DC0E0E944B170895811101C00895909119
:103B10000D02892B80930D020E944B170895882374
:103B2000F1F08238C1F18338D9F0843809F447C004
:103B30009CEF980F913AF0F190E2980F9830F8F0DE
:103B40009BE5980F933008F44DC098E5980F9B3192
:103B500008F44DC093E3980F933108F43FC00895E3
:103B60000E94ED0780FFFBCF83E50E94C3060E9401
:103B70004B1783E50E947E060E944B1708958770BD
:103B800091E001C0990F8A95EAF7892F0E94DC0E17
:103B90000E944B1708950E94ED0781FFE0CF89E353
:103BA0000E94C3060E944B1789E30E947E060E9472
:103BB0004B1708950E947E060E944B1708950E949D
:103BC000ED0782FFCCCF87E40E94C3060E944B170B
:103BD00087E40E947E060E944B17089560E00E94D1
:103BE000A20F089590E080E00E94BB07089590E046
:103BF00080E00E9496070895CF93C82F882301F193
:103C0000823809F446C08338E9F0843809F465C085
:103C10008CEF8C0F813A08F454C080E28C0F88300E
:103C200048F1EBE5EC0FE33008F474C0E8E5EC0F85
:103C3000EB3108F47FC083E38C0F833108F465C057
:103C4000CF9108950E94ED0780FDFACF83E50E9491
:103C5000C3060E944B172FEF81EE94E02150804065
:103C60009040E1F700C0000083E50E947E060E94BC
:103C70004B17E6CFC77021E030E001C0220FCA9594
:103C8000EAF780910D02822B80930D020E944B1760
:103C9000D7CF0E94ED0781FDD3CF89E30E94C306F1
:103CA0000E944B172FEF87EE93E021508040904009
:103CB000E1F700C0000089E30E947E060E944B17D6
:103CC000BFCF8C2F0E94520781112EC08C2F0E94D3
:103CD000C3060E944B17CF9108950E94ED0782FD05
:103CE000AFCF87E40E94C3060E944B172FEF81EEEF
:103CF00094E0215080409040E1F700C0000087E44C
:103D00000E947E060E944B179BCF61E08C2F0E9481
:103D1000A20F96CFF0E0EE0FFF1FE55AFE4F808115
:103D200091810E94BB078CCF8C2F0E947E060E943F
:103D30004B17CCCFF0E0EE0FFF1FEB5DFE4F808105
:103D400091810E9496077CCFAAE0B0E0EAEAFEE10A
:103D50000C94AE34AE014F5F5F4F6A018AE0FA0106
:103D600011928A95E9F781E6E82E81E0F82E4A0162
:103D7000712CAA24A394B12CF70181917F018F3F6C
:103D800009F442C0F894E82FE295EF70F0E021A129
:103D90008F70A50102C0440F551F8A95E2F7CA0132
:103DA000922F982B91A392A18095892382A3789436
:103DB00000C08FB180958170082F10E0799903C001
:103DC0008260082F10E07C9B04607D9B08607E9BD6
:103DD00000617F9B0062379B0064369B00681E9BDE
:103DE00011601D9B12601C9B14604F9B18604E9BC2
:103DF00010614C9B1062872D0E949A0C50EA5A95D4
:103E0000F1F7F401118300837394F2E08F0E911C9B
:103E100045E07412B1CF4AE050E0B60181E192E092
:103E20000E947F35892B01F18AE0F601A1E1B2E021
:103E300001900D928A95E1F781E0809310022FB7EF
:103E4000F8948091E4029091E502A091E602B0918D
:103E5000E7022FBF90930F0280930E0280E02A9614
:103E6000EDE00C94CA343AC080911002811106C072
:103E700080E02A96EDE00C94CA3430C020910E0206
:103E800030910F024FB7F8948091E4029091E502CF
:103E9000A091E602B091E7024FBF821B930B0597FA
:103EA00038F34AE050E061E172E082E492E00E947F
:103EB0007F35892B41F480E0109210022A96EDE0C4
:103EC0000C94CA340BC08AE0E1E1F2E0A2E4B2E073
:103ED00001900D928A95E1F781E0EECF1F93CF9389
:103EE000DF93182FEB010E94FC1D209741F08FE912
:103EF0009FE00197F1F700C000002197C1F7812FE3
:103F00000E948F1DDF91CF911F9108950F931F93F2
:103F1000CF93DF93C62FD42F122FFC0185818111FF
:103F200011C08091EA02681759F1C77081E001C0A1
:103F3000880FCA95EAF70E947C1DDF91CF911F91EF
:103F40000F9108956093EA022FB7F8948091E402EC
:103F50009091E502A091E602B091E7022FBF909305
:103F6000E9028093E802C77081E001C0880FCA951A
:103F7000EAF70E94841DDF91CF911F910F91089560
:103F80002091E8023091E9024FB7F8948091E40261
:103F90009091E502A091E602B091E7024FBF821B2B
:103FA000930B883C910508F0C0CF00E20D0F6D1710
:103FB00061F080E2860F883058F10830C8F070E078
:103FC00060E0812F0E946E1FB8CF70E060E0812F0B
:103FD0000E946E1F083008F0B0CFC77081E001C0AA
:103FE000880FCA95EAF7C82F8C2F0E947C1DA5CF99
:103FF000D77081E090E001C0880FDA95EAF7C82F0A
:104000000E94841D70E060E0812F0E946E1FECCF43
:10401000C77081E001C0880FCA95EAF70E947C1D35
:10402000CCCFA8E0B0E0E7E1F0E20C94A9346C0159
:10403000DC0114968C911497811105C02896E2E159
:104040000C94C5340FC721E04C9111965C911197E7
:1040500012966C91129713967C91139715969C91DA
:104060000E9472148C01F601858181111FC0F80134
:10407000E851FC47E730F10508F4F0C60631ECE7FB
:104080001E0709F447C60737ACE71A0709F49FC6AD
:104090000837BCE71B0709F09CC282E00E94371179
:1040A00043E062E081E00E94131135C09801375768
:1040B0002038310508F446C0F801E851FC47E730E4
:1040C000F105E0F11092EA029801305723323105F0
:1040D00008F48CC00631BCE71B0709F40BC69091AD
:1040E0000D029272F801E052F847EB30F10508F446
:1040F0001DC20737FCE71F0709F46EC608372CE717
:10410000120709F066C282E00E945F1143E062E09C
:1041100081E00E9413118091E101877009F48ECF34
:10412000D60115968C91882309F488CF809192024C
:1041300082FF84CF82E00E94481180CFED5AF94C73
:104140000C948D34003138F78FEF93E00E949C354A
:104150008111E1CFA2E88A2EA3E09A2E01110CC0B2
:1041600063C001502FEF821A920A002309F45CC049
:104170008114F4E09F0679F2C4010E949C358823E3
:1041800081F3EFEF8E1A9E0AF3CF27E245EE66EE3B
:10419000C6010E94861FBFCF26E241EE62EEC60135
:1041A0000E94861FB8CF27E245EE65EEC6010E9449
:1041B000861FB1CF26E241EE61EEC6010E94861F46
:1041C000AACF27E245EE64EEC6010E94861FA3CF68
:1041D00026E241EE60EEC6010E94861F9CCF28E2D7
:1041E00041E065EEC6010E94861F95CF84E090E015
:1041F0000E94AA3590939202809391020150104739
:104200000232110508F441C48091910281608093CB
:104210009102609191027091920284E090E00E947C
:10422000DE350E94A21777CFFE01339686E0DF01CC
:104230001D928A95E9F77401BFEFEB1AFB0AC401DE
:104240000E949C35182F89831A82882309F463CF32
:10425000813009F0DAC05401E2E0AE0EB11CC701B2
:104260000E949C35382E8A83882309F454CF8FEF1F
:10427000830D833008F002C17401F3E0EF0EF11CEE
:10428000C5010E949C358B83882309F444CF1C828E
:104290004701FE0131967F0120C0D70112968C9113
:1042A000B1E03B1609F48FC0F2E03F1609F49AC062
:1042B000B3E03B1609F4A0C0F4E03F1609F4A7C030
:1042C000382E750157019FEFA91AB90A332009F456
:1042D000B2CF132DF701328075015701FFEFAF1AEE
:1042E000BF0A1130D1F2E12FF0E0E452FF4F2490E9
:1042F000212F26952695269530E0F901E453FF4FAE
:104300000491812F877010E0082E02C01595079543
:104310000A94E2F701701127F901E454FF4F649009
:10432000712C082E02C0759467940A94E2F7A1E0FC
:104330006A227724F901E455FF4F4490512C02C0C2
:10434000559447948A95E2F7B1E04B225524011524
:104350001105A9F461147104E1F470E060E0822DAC
:104360000E946E1F0115110541F54114510409F415
:10437000ADCF70E060E08CE20E946E1FA7CF80910D
:104380000D02826080930D020E944B17611471042C
:1043900021F380910D02806480930D020E944B17DF
:1043A00070E060E0822D0E946E1F80E40E94DC0EAF
:1043B0000E944B1701151105C1F282E00E94DC0E2C
:1043C0000E944B17D2CF87010E5F1F4F60E570E050
:1043D000893311F070E060E00E946E1FF7013380B6
:1043E000780170CF87010E5F1F4F0E94FC1DD7011F
:1043F00013963C90780166CF87010E5F1F4F0E9495
:104400008F1DF701338078015DCF312C41CFA7019B
:104410004E5F5F4F90E09C01205331092A303105F7
:1044200008F07FC0A7014D5F5F4F30E020E0B90189
:10443000660F771F660F771F260F371F220F331F58
:10444000C097280F391F7A01FA0180814F5F5F4FB3
:1044500090E0BC01605371096A30710540F331800E
:104460002115310509F42ECF8FE99FE00197F1F76F
:1044700000C0000021503109B9F724CF24E03216E2
:1044800011F0750105CF84010D5F1F4FC5010E941A
:104490009C358B83882309F43ECE8C3709F4BAC44B
:1044A000740134E0E30EF11CC8010E949C358C833A
:1044B000882309F430CE8C3709F4B0C40E5F1F4F47
:1044C000C7010E949C358D83882309F424CE8C3744
:1044D00009F4ACC4740186E0E80EF11CC8010E9426
:1044E0009C358E83882309F416CE8C3709F49AC440
:1044F000C7010E949C358F838C3709F00CCE97E062
:10450000890E911CE6E0F0E0A2E0B0E0AC0FBD1F28
:10451000EA0FFB1F10821981112309F48CCE3A8017
:10452000B8CED70113963C907A01CCCEE65AF94C1E
:104530000C948D34992319F10E947116ECCD9923B6
:1045400029F00E943616E7CD9923D9F30E94291647
:10455000E2CD992329F00E944316DDCD9923D9F3AA
:104560000E945016D8CD992329F00E946716D3CD0A
:104570009923D9F30E945D16CECD9923E9F20E94CA
:104580008B16C9CD992329F00E940717C4CD992312
:10459000D9F30E941217BFCD80916A0280FF55C4E3
:1045A000282F2E7F20936A0230916B0240916C027B
:1045B00050916D0260916E0270916F028091700255
:1045C000909171020E946F15109253020E9473081D
:1045D000A2CD9801205E32452032310508F4A2C3F5
:1045E0008111B6C3D6010D911C91C8010E94190F0B
:1045F000F82EB8018F2D0E94D5130E94AD0DF82E14
:10460000092F782ED60115969C90159716962C9109
:10461000E22EE2949FE0E9222091E1012770A1F0CF
:10462000892C992091F0802F807F803449F080E29E
:104630008F0D883048F0802F807E803209F447C18A
:104640008091920282FDDFC0812C102F12951F7085
:10465000A12EB12C1C30D0F4F501EB59F94C0C947F
:104660008D348F2DF2EF7F1609F4B2C1F71508F4DF
:10467000D6C020EF721609F4B9C131EF7312AEC182
:10468000802F8F719110E4C00E94371128E0A21A88
:10469000B10834E0A316B104D8F081101FC020E0A7
:1046A000F6014081518162817381848195810E94EC
:1046B00072142896E2E10C94C534D4C30F7099208B
:1046C00009F4FEC0802F0E945F118F2D0E94841D6F
:1046D0000E94E0070E94D110882009F38091E10137
:1046E00080FDDDCFD60115961C9286958695869520
:1046F0000E945F11C6010E9411208091E101869500
:10470000869586950E943711CACF802F837009F055
:10471000A2C09110DDCF4F2D429546954770440FB2
:10472000440F8F2D8F70042E01C0880F0A94EAF772
:104730002F2D2071F4FE07C02FE030E001C0220FC2
:104740004A95EAF72095069506950370023009F41C
:1047500094C208F08EC2013009F496C2822B2091D7
:104760001B02822380931B02B3CF692D8F2D0E94E1
:10477000A20F93CFE02FEF706E2E007F003219F062
:10478000629480EF6822772009F4BBC0F1E07F16C5
:1047900009F4AFC0992009F4D9C0E1101DC0862DDD
:1047A0000E94841D73CF102F1F70007F11F012958F
:1047B000107F8F2D992009F4B8C0112369F090E281
:1047C0009F0D983010F0F1105AC180910D02182BF6
:1047D00010930D020E944B178F2D0E94FC1D56CF87
:1047E000802F86958695837009F479C0813009F011
:1047F0004DCF80E090E0992019F08F2D902F93708D
:104800000E9496074ACF82E00E9448118091E10100
:10481000877088248394882309F417CF15CF93EFEA
:10482000791609F4C3C0A4EF7A12D8C0909192020D
:1048300092FF26CF992009F452C2802F8F7192FFE8
:1048400007C098E0899F9001112423602093E10123
:104850000E945F111BCF8695992011F0802F8170E7
:10486000882309F435CF6F2D629566956770660FC2
:10487000660F4F2D4F70062E01C0440F0A94EAF7C1
:104880008F2D8071F4FE07C08FE090E001C0880F8B
:104890006A95EAF78095069506950370023009F44B
:1048A00001C208F0F8C1013009F406C2282F242BF8
:1048B00010911C0212230E94D11010931C0208CFE9
:1048C0008F2D0E947C1D802F0E94371101CFB1E0F7
:1048D000BF1508F0B9CEEE2009F4B6CEB1CE80E017
:1048E00090E0992019F08F2D902F93700E94BB07B4
:1048F000D4CE992009F452C035E03E1508F4C6CE56
:104900004ECF8091920282FD35C0992009F4DDC11D
:10491000662039F080910D02682A60920D020E9493
:104920004B1780E00E94FC1DB1CE0E948F1D112309
:1049300009F4ACCE80E28F0D883010F0711001C206
:10494000812F0E94DC0E0E944B17A0CEEE2051F169
:1049500099E3791209C0AFEFB7EEE3E0A150B040A0
:10496000E040E1F700C000008F2D0E948F1DA12EB6
:10497000B12C8CCE992009F44FC0EE2009F40FCF52
:1049800021E0E21283CE8091E201962D98236916F0
:1049900009F47CCE86298093E20178CE84E08E15DE
:1049A00008F474CE862D0E947C1D70CE992009F4E7
:1049B0004FC00F7121E030E0C90102C0880F991F7C
:1049C0000A95E2F78C010E94D11000931C025ECE82
:1049D000802F8F71992009F43BCF56CE992009F48E
:1049E0003CC0E110F9CE802F8F7132CF992059F160
:1049F000B4E0BE1508F44ACE0F7181E090E0002EBD
:104A000001C0880F0A94EAF710911C0218270E942F
:104A1000D11010931C023ACEE11038CE862D0E94A0
:104A20007C1D9091E201862D892309F0EDC19091C2
:104A3000BE01862D892309F429CE862D80958923F0
:104A40008093BE0123CEE5E0EE1508F41FCED4CF4F
:104A50000E94D11010921C0219CEEE2009F4B9C1A7
:104A6000893349F4BFEFE7EEF3E0B150E040F040A6
:104A7000E1F700C000008F2D0E948F1D07CE8091AE
:104A8000E301182B1093E301A5CE0F58194CF80140
:104A90000C948D3480919202886080939202B9CBFD
:104AA00060E08EE090E00E94C035B3CB61E08EE024
:104AB00090E00E94C035ADCB80919202982F9095E6
:104AC00091708E7F892B90FB81F980939202A1CB0C
:104AD000809192028C7F809392029BCB8091920274
:104AE00083608093920295CB809192028D7F809318
:104AF00092028FCB8091920282608093920289CB46
:104B0000809192028E7F8093920283CB8091920259
:104B10008160809392027DCB8091910282FB9927E4
:104B200090F921E0922790FB82F990FB83F9809322
:104B300091026FCB80919102837F8093910269CB28
:104B4000809191028C608093910263CB0E94A217A6
:104B500090919102892F97FB87F980588093910259
:104B600058CB0E94A217809191028F778093910277
:104B700050CB0E94A217809191028068809391028D
:104B800048CB90919102892F8F7B96FF8064809310
:104B900091023FCB809191028F7B8093910239CB20
:104BA0008091910280648093910233CB8091910235
:104BB0008F7D809391022DCB8091910280628093B2
:104BC000910227CB90919102892F8F7E94FF806173
:104BD000809391021ECB809191028061809391021B
:104BE00018CB809191028F7E8093910212CB80919D
:104BF0009102877F809391020CCB80919102886013
:104C00008093910206CB809191028B7F80939102D9
:104C100000CB80919102846080939102FACA8091C6
:104C20009102826080939102F4CA809191028D7FFB
:104C300080939102EECA90919102892F8E7F90FF0E
:104C4000816080939102E5CA809191028E7F80936A
:104C50009102DFCA80919202877F80939202D9CA23
:104C600090919202892F877F93FF886080939202B0
:104C7000D0CA822B80931B022BCD822B20911B024A
:104C8000822780931B0224CD90911B02892B282B15
:104C900020931B021DCD182F142B0E94D1101093AE
:104CA0001C0216CD282F242B10911C0212270E94C3
:104CB000D11010931C020CCD10911C02142B182B38
:104CC0000E94D11010931C0203CD80E00E948F1D22
:104CD000662009F4DBCC862D0E94DC0E34CE81E008
:104CE0000E944811A1E0AE1508F0D0CC82E00E94ED
:104CF0004811CCCC80910D028A7A91E009F490E0C1
:104D00009093BD0181117EC089E20E94C3060E947A
:104D10004B1701CA8091BD01811172C089E20E94C6
:104D20007E06F5CF882309F459C0D6010D911C9158
:104D3000C8010E94E313F82E682FC8010E94600F7B
:104D400058CC10958091E30118231093E301FBCD1B
:104D50000330BCE71B0709F471C0D0F00B353CE70A
:104D6000130709F467C00C358CE7180711F580911B
:104D7000920282FB882780F991E089270E943317ED
:104D8000F601858100811181882309F42ECCD0CFD2
:104D90000115FCE71F07A9F40E94A217BFEFE4E387
:104DA000FCE0B150E040F040E1F700C000000E949C
:104DB000F0110A351C4709F0B8CF81E00E94331783
:104DC000DFCF01301C4709F0B0CF0E94661D81E0A3
:104DD00065C9802F8F7158CC81E096C90F7181E031
:104DE00090E0DC0102C0AA0FBB1F0A95E2F78D011B
:104DF0006A2F83E090E00E94C03500931B028BC9AC
:104E000085E38DCF85E381CF862D8095892380939F
:104E1000E2010DCE4801E2E0F0E076CB4701E3E0AD
:104E2000F0E072CB4701E5E0F0E06ECB4801E4E052
:104E3000F0E06ACB80E00E943317A2CF6FEF7FEFE4
:104E400090E080E00E94DE35C0CF816080936A02EE
:104E500061E0869586950E94A5165DC9ED56F94CD0
:104E60000C948D34CF938091E001807F09F055C080
:104E70008091DF01882309F450C0E091E302409162
:104E8000AA02E41709F449C07091DB01C091DA016C
:104E9000A091DC01B091DD0157E005C0FC01319625
:104EA000E770E417D1F18E2F90E0E59FF001112417
:104EB000E555FD4F2481222389F39C01220F331FE6
:104EC000220F331F220F331F281B390BF901E55521
:104ED000FD4F61816713E2CF60816C13DFCF658185
:104EE0006111DCCF0280F381E02DEA1BFB0BE83C73
:104EF000F105A0F68091E0018F7080618093E00160
:104F0000F901EF54FD4F80818F70806180838AEDBD
:104F100091E00E9411200E940E0FCF910895A4E10C
:104F2000B0E0E5E9F7E20C94AF348C0186E0F801DB
:104F3000DE011F9601900D928A95E1F7F8019481A8
:104F4000E5808AEDA82E81E0B82E8091DE018823CD
:104F500009F44AC080809180C280D380F090DF0144
:104F60002091DC013091DD01A601421B530BF110B1
:104F700021C0483C510508F09DC09923B9F1FE2C91
:104F8000EE2009F443C08091DB01891105C08091B6
:104F9000DA01881609F4BAC0C8010E9449148111C7
:104FA0006DC08091E00181608093E001C8010E94A2
:104FB00011201EC0483C5105A0F59923C9F09091DD
:104FC000DB018091E001282F207F09F079C099163C
:104FD00009F4B9C0EE2009F4E4C08091E0018160D9
:104FE0008093E001F12C04C0911108C0FF24F394D8
:104FF0008F2D6496ECE00C94CB342CC1EE2031F074
:10500000C8010E944914F82E8111BCC0C8010E9439
:105010001120FF24F3948F2D6496ECE00C94CB3494
:1050200019C18091E001282F207F09F4A0C09923A5
:10503000F9F29091DB01991133C09091DA01891254
:105040002FC0EE2009F4FCC0C8010E944914882337
:10505000E9F28091E001803288F02091DA0130910C
:10506000DB013A832983DC82CB829091DE019D8330
:105070001E828F83CE0101960E94112087E0F801E5
:10508000AAEDB1E001900D928A95E1F70E943227D6
:10509000FF24F3948F2D6496ECE00C94CB34DAC0AB
:1050A000C8010E944914882309F4B0CFEE2009F406
:1050B000ADCFCFCF87E0F50111928A95E9F798CF70
:1050C000991205C09091DA01891609F4A1C0C801AE
:1050D0000E944914882309F499CFEE2009F496CF51
:1050E0008091E001803250F22091DA013091DB01B1
:1050F00039872887DB86CA869091DE019C871D86CA
:105100008E87CE0108960E941120B8CF8091E001D1
:1051100080FD68C0982F907F09F464C08683903F1B
:1051200031F0982F907F905F8F70892B8683C80114
:105130000E94112087E0F801AAEDB1E001900D92E4
:105140008A95E1F755CF9091DA01891243CFE110AA
:1051500044CF8F7080618093E0018AED91E00E94DE
:1051600011208091E001F8018683F12C41CF8AED76
:1051700091E00E94112087E0F50111928A95E9F7EC
:10518000F12C36CF87E0F801D50101900D928A9578
:10519000E1F78091DE01813009F443C00E9432279B
:1051A00027CF692D882D0E949C03692D882D0E9490
:1051B0009C03811115C08F86988A8F8598890E94DB
:1051C0003C14292F22952F702430A8F4223080F52A
:1051D0009F7011F0882321F0805E883008F0E6CEC1
:1051E000F12C06CF87E0F801AAEDB1E001900D9215
:1051F0008A95E1F7FDCE2A5F2F70223008F0D6CED7
:10520000803F70F3815F833008F0D0CEF12CF0CE78
:10521000EE2009F48BCFC8010E944914811160CFA0
:10522000F5CE8091DA019091DB010E943C14B6CF5B
:105230009F7091F2F8019681907F71F6F12CD8CE93
:105240008683C8010E94112087E0F50111928A959A
:10525000E9F7CECEABE1B0E0E0E3F9E20C94B7348D
:105260004E8B5F8B688F798F8A8F9B8F192F91114F
:1052700049C01D8A86E0FE017696DE011F960190E8
:105280000D928A95E1F70A8D002341F021E04F85C8
:10529000588969897A89C8010E9472140B8B1C8B0A
:1052A00087E0FE013F96DE01189601900D928A95E7
:1052B000E1F7CE0108960E948F27882331F11091E3
:1052C000AA020091E3021017C9F017E00EC0209166
:1052D000E30230E02F5F3F4F27703327022F2093E8
:1052E000E3029091AA02291749F0019FC0011124FD
:1052F00085559D4F0E948F278111E9CF6B96E4E081
:105300000C94D3341092E301B4CF87E0FE013896B9
:10531000DE01119601900D928A95E1F71091AA0293
:105320000091E3028C85882371F2212F30E0C901BE
:1053300001968770992708171906C1F0D901AA0F9D
:10534000BB1FAA0FBB1FAA0FBB1FA21BB30BA555E8
:10535000BD4F97E0FE01319601900D929A95E1F7CD
:10536000182F8093AA020E940E0FADCF0E94A217A1
:105370001092AA021092E30287E0EAEDF1E0DF0169
:105380001D928A95E9F7BACF1F920F920FB60F922E
:1053900011242F933F934F935F936F937F938F933A
:1053A0009F93AF93BF93CF93EF93FF93C091E90087
:1053B000CF708091EC0080FDC0681092E900809170
:1053C000F000877F8093F00078940E94D7171092A6
:1053D000E9008091F00088608093F000CF70C09366
:1053E000E900FF91EF91CF91BF91AF919F918F9184
:1053F0007F916F915F914F913F912F910F900FBED1
:105400000F901F9018951F920F920FB60F921124B4
:105410002F933F934F935F936F937F938F939F93BC
:10542000AF93BF93EF93FF938091E10082FF04C09D
:105430008091E20082FDC1C08091DA0080FF24C02B
:105440008091D80080FF20C08091DA008E7F809309
:10545000DA008091D90080FFBEC080E189BD82E181
:1054600089BD09B400FEFDCF81E08093A002809148
:105470009402811109C00E94B8040E94D70480914F
:10548000E20084608093E2008091E10080FF04C02C
:105490008091E20080FD50C08091E10084FF33C024
:1054A0008091E20084FF2FC080E189BD82E189BD47
:1054B00089B5982F917080FFFBCF8091D8008F7DA8
:1054C0008093D8008091E1008F7E8093E1008091ED
:1054D000E2008F7E8093E2008091E2008160809301
:1054E000E2008091A102811172C08091E30087FDEA
:1054F00078C0892F8093A0028091A002843009F4A3
:1055000092E0909324018091E10083FF04C0809198
:10551000E20083FD2CC0FF91EF91BF91AF919F916D
:105520008F917F916F915F914F913F912F910F904C
:105530000FBE0F901F9018958091E2008E7F809390
:10554000E2008091E20080618093E2008091D800C7
:1055500080628093D80019BC85E08093A00283E02C
:10556000809324018091E10084FFCDCF99CF809179
:10557000E100877F8093E10082E08093A002109297
:10558000A1028091E1008E7F8093E1008091E20092
:105590008E7F8093E2008091E20080618093E20040
:1055A0000E94BE038091F00088608093F00081E04B
:1055B0008093240180932301AECF8091E1008B7F03
:1055C0008093E1008091DA0080FF5ECF39CF84E0E4
:1055D0008093A00291CF19BC1092A0021092940265
:1055E00053CF83E087CF78941F921FB61F92112468
:1055F0008F939F93AF93BF938091E4029091E502C4
:10560000A091E602B091E7020196A11DB11D809321
:10561000E4029093E502A093E602B093E702BF9103
:10562000AF919F918F911F901FBE1F9018951F9251
:105630001FB61F9211248F939F93AF93BF938091B6
:105640009302811113C08091E4029091E502A09130
:10565000E602B091E7024196A11DB11D8093E402DC
:105660009093E502A093E602B093E702BF91AF9159
:105670009F918F911F901FBE1F901895CDB7DEB7D9
:10568000AC970FB6F894DEBF0FBECDBF85B780686C
:1056900085BF85B7806885BF84B7877F84BF0FB615
:1056A000F894A895809160008861809360001092C2
:1056B00060000FBE80E890E00FB6F8948093610020
:1056C000909361000FBE81E08093240188E99CE003
:1056D00090939301809392010E94B8040E94D70492
:1056E0008091E20084608093E20078948091A0022F
:1056F0008823A9F01091E9001F709091EC00892F88
:10570000817090FD00C4182B1092E9008091E80090
:1057100083FF02C00C9430331F701093E90082E0C5
:1057200084BD93E095BD9AEF97BD80936E000E9473
:105730008B13882311F40C943C3380E00E949A0C64
:1057400081E00E949A0C82E00E949A0C83E00E9401
:105750009A0C84E00E949A0CF8948098889A789425
:10576000F8948198899A7894F89484988C9A78948B
:10577000F89485988D9A7894F89486988E9A78946F
:10578000F89487988F9A7894F8943F98479A7894E9
:10579000F8943E98469A7894F89426982E9A78949D
:1057A000F89425982D9A7894F89424982C9A7894C3
:1057B000F89457985F9A7894F89456985E9A7894EB
:1057C000F89454985C9A78948AE0E2E4F2E0DF017D
:1057D000282F1D922A95E9F7E1E1F2E0DF011D9201
:1057E0008A95E9F790E080E00E94AA35853E9E4FB9
:1057F00009F484C365EE7EEF90E080E00E94DE3520
:1058000060E082E090E00E94C03511E010931B023E
:1058100061E083E090E00E94C03560E074E184E0E4
:1058200090E00E94DE3560E086E090E00E94C035A6
:1058300060E087E090E00E94C03540E050E0BA01AF
:1058400088E090E00E94D23560E083E290E00E9420
:10585000C03560E08CE090E00E94C03560E08DE0F3
:1058600090E00E94C03519821A821B821C821D8220
:105870001E821F82188648E050E067E170E0FE015A
:1058800031963F01CF010E94B03540E050E0BA01AF
:105890008FE190E00E94D23582E1D3011D928A957A
:1058A000E9F7C3010E941E1780E00E94E4120E94E3
:1058B0007B1310922C022FEF20932D0296E99093E8
:1058C0002E0284E080932F02109230021093310256
:1058D00036E5309332022093330290933402809362
:1058E0003502109336021093370226EA20933802CD
:1058F0002EEF2093390290933A0280933B0282E08C
:1059000080933C0210933D028CE292E00E941E17AD
:1059100040E050E0BA0183E190E00E94D23582E09D
:1059200090E00E949C358093200284E090E00E94E9
:10593000AA3590939202809391020E94A41EBFEF19
:10594000E6E7F1E0B150E040F040E1F700C00000D0
:105950000E94A41E8091420280FD86C683E090E0F2
:105960000E949C3580931B020E94D11080911D02E1
:10597000811139C088E090E00E94A4354B015C01A0
:1059800083E290E00E949C35282F30E040E050E018
:1059900060E070E080E090E000E20E94E0342829BE
:1059A00039294A295B2920936A0230936B0240937C
:1059B0006C0250936D0260936E0270936F0280933D
:1059C0007002909371022C7F09F40CC70E94E808C2
:1059D000109253020E94700880916A0280FDFCC6FA
:1059E00081E080931D028FE090E00E94A435623137
:1059F00071058105910509F498C6ECE2F2E082E1B7
:105A0000DF011D928A95E9F783E080931E0184E00F
:105A100080931F0181E0809320010E94D11084E0D7
:105A200091E090938E0280938D02FE0131963F01AA
:105A300018E1412E512C8091A002853009F4E8C173
:105A40000E94A41E209121023091220280914202E4
:105A5000909143022817390769F52091230230916C
:105A6000240280914402909145022817390711F5CC
:105A700020912502309126028091460290914702A2
:105A800028173907B9F42091270230912802809114
:105A90004802909149022817390761F420912902A0
:105AA00030912A0280914A0290914B0228173907BF
:105AB00009F467C2A2E48A2EA2E09A2EB1E2AB2ECC
:105AC000B2E0BB2E212CD4010D911D914D01F501A9
:105AD000C190D1905F01C016D106A9F1C026D12690
